:020000040800F2
:1000000000000220191200082D0E0008330E00080F
:10001000390E00083F0E0008450E000800000000E1
:100020000000000000000000000000004B0E00086F
:10003000590E000800000000670E0008750E000849
:1000400069120008691200086912000869120008A4
:100050006912000869120008691200086912000894
:100060006912000869120008691200086912000884
:100070006912000869120008691200086912000874
:100080006912000869120008691200086912000864
:100090006912000869120008691200086912000854
:1000A0006912000869120008691200086912000844
:1000B0006912000869120008691200086912000834
:1000C0006912000869120008691200086912000824
:1000D0006912000869120008691200086912000814
:1000E0006912000869120008691200086912000804
:1000F00069120008691200086912000869120008F4
:1001000069120008691200086912000869120008E3
:1001100069120008810E00086912000869120008BF
:1001200069120008691200086912000869120008C3
:1001300069120008691200086912000869120008B3
:10014000691200086912000869120008950E00087B
:100150006912000869120008691200086912000893
:100160006912000869120008691200086912000883
:1001700069120008691200086912000800000000F6
:08018000691200086912000871
:1001900010B5054C237833B9044B13B10448AFF3C1
:1001A00000800123237010BD6C01002000000000BE
:1001B000EC95000808B5034B1BB103490348AFF3A6
:1001C000008008BD0000000070010020EC950008D0
:1001D00001F0FF01102A2BDB10F0070F08D010F8F8
:1001E000013B013A8B422DD010F0070F42B3F6D1FC
:1001F000F0B441EA012141EA014122F007047FF015
:1002000000070023F0E80256083C85EA010586EA6B
:10021000010685FA47F5A3FA87F586FA47F6A5FAA7
:1002200087F68EB9EED1F0BC01F0FF0102F00702B3
:1002300032B110F8013B013A83EA010313B1F8D15E
:100240000020704701387047002D06BF354603383F
:10025000073815F0010F07D1013015F4807F02BF78
:10026000013015F4C03F0130F0BC0138704700BFC9
:1002700053B94AB9002908BF00281CBF4FF0FF310D
:100280004FF0FF3000F070B9ADF1080C6DE904CE0D
:1002900000F006F8DDF804E0DDE9022304B0704761
:1002A0002DE9F047089E0D4604460F46002B4AD123
:1002B0008A42944665D9B2FA82F343B102FA03FC4A
:1002C000C3F120029F4020FA02F217439C404FEAFC
:1002D0001C4E1FFA8CF5B7FBFEF1220C0EFB1177BA
:1002E00042EA074201FB05F090420AD91CEB0202E8
:1002F00001F1FF3780F01C81904240F219810239F0
:100300006244121AA4B2B2FBFEF00EFB102244EAC1
:10031000024400FB05F5A5420AD91CEB040400F1D8
:10032000FF3280F00781A54240F204816444023824
:1003300040EA0140641B00211EB1DC400023C6E9F5
:100340000043BDE8F0878B4208D9002E00F0ED8015
:100350000021C6E900050846BDE8F087B3FA83F13D
:10036000002949D1AB4202D3824200F2F880841ABC
:1003700065EB030201201746002EE2D0C6E90047D4
:10038000DFE702B9FFDEB2FA82F3002B40F0908083
:100390008A1A4FEA1C471FFA8CFE0121B2FBF7F5BF
:1003A00007FB1520220C42EA00420EFB05F09042AA
:1003B00008D91CEB020205F1FF3802D2904200F28C
:1003C000CB804546121AA4B2B2FBF7F007FB10220D
:1003D00044EA02440EFB00FEA64508D91CEB0404C7
:1003E00000F1FF3202D2A64500F2BB801046A4EB1A
:1003F0000E0440EA05409FE7C1F120078B4022FA36
:1004000007FC4CEA030C05FA01F420FA07F3FD405F
:100410004FEA1C492343B5FBF9F81FFA8CFE09FB90
:1004200018551C0C44EA054408FB0EF5A54202FAD7
:1004300001F200FA01F00BD91CEB040408F1FF3AB9
:1004400080F08880A54240F28580A8F102086444CB
:10045000641B9DB2B4FBF9F309FB134445EA044461
:1004600003FB0EFEA64508D91CEB040403F1FF357F
:100470006CD2A6456AD9023B644443EA0843A3FB15
:100480000295A4EB0E04AC42C846AE4656D353D0F8
:1004900056B1B0EB080264EB0E0404FA07F7CA4049
:1004A000CC401743C6E9007418460021BDE8F08728
:1004B000C3F1200102FA03FC20FA01F225FA01F14E
:1004C0009D402A434FEA1C471FFA8CFEB1FBF7F010
:1004D00007FB1015110C41EA054100FB0EF58D429A
:1004E00004FA03F408D91CEB010100F1FF382FD204
:1004F0008D422DD902386144491B92B2B1FBF7F508
:1005000007FB151142EA014205FB0EF1914208D9A1
:100510001CEB020205F1FF3816D2914214D9023DBC
:100520006244521A45EA004138E73146304608E74E
:100530003946E6E61046FBE64845A9D2B9EB020883
:1005400065EB0C0E013BA3E74546EAE72B4694E733
:100550004046D1E7D0467BE7023D624432E7084699
:100560000AE76444023842E7704700BF80B582B0B2
:1005700000AF3B4683E80300F5233B70F523FB7196
:100580003B4693E8030000F08BF80346BB71BB7851
:100590001946074808F05AF939464FF4FA63082219
:1005A000044803F0B7F900BF0837BD4680BD00BF5F
:1005B00004960008A401002080B586B000AF7860E2
:1005C0000023FB752D4B1B7819462D4808F03EF98A
:1005D00016E02A4B00221A70284B1B781946294B2B
:1005E0001B781A46284808F031F94FF40041274893
:1005F00001F02BFA642000F0ABFEFB7D0133FB75AC
:10060000FB7D132B03D81D4B1B78082BE1D1204A0F
:1006100007F10C031068516803C3082200211C482D
:1006200008F05AFA3B7B19467B7B1A46194808F0BA
:100630000DF90023BB750BE0BB7D18333B4413F869
:100640000A3C1946144808F001F9BB7D0133BB751B
:10065000BB7D032BF0D9BB7C1946FB7C1A460F48A7
:1006600008F0F4F87B681A4607F10C0303CB10601E
:10067000516078681837BD4680BD00BF90010020EA
:10068000189600083402002028960008000C02404A
:1006900088010020389600084C9600085096000803
:1006A00080B485B000AF3B4683E803007B78FB73E2
:1006B0000023BB6009E0BA1CBB6813441A78FB7BBB
:1006C0005340FB73BB680133BB60BB68032BF2DD97
:1006D000FB7B18461437BD465DF8047B704780B538
:1006E00082B000AF3B4600221A605A60A0237B70A4
:1006F0003B4693E80300FFF739FF00BF0837BD46CC
:1007000080BD80B584B000AF07F1080300221A60F5
:100710005A60B5237B7207F1080393E80300FFF7E3
:1007200025FF3B461846FFF747FFBB7818461037B2
:10073000BD4680BD80B586B000AF0346FB71104852
:1007400008F0EAF807F1100300221A605A6001234A
:100750007B74FB79FB7407F1100393E80300FFF748
:1007600005FF4FF47A7000F0F3FD07F10803184617
:10077000FFF722FFBB7A18461837BD4680BD00BF81
:100780005896000880B584B000AF0346FB7107F1AE
:10079000080300221A605A6004237B72FB79BB7243
:1007A00007F1080393E80300FFF7E0FE00BF1037EE
:1007B000BD4680BD80B584B000AF07F108030022BC
:1007C0001A605A6005237B7207F1080393E803005F
:1007D000FFF7CCFE3B461846FFF7EEFE00BF103792
:1007E000BD4680BD80B586B000AF0023FB8200BF50
:1007F000FB8A0133FB82FB8AB3F5967F04D2FFF7B5
:1008000080FF0346002BF3D0FB8AB3F5967F01D916
:10081000002316E0FFF775FF07F10C0300221A60B2
:100820005A600C237B7307F10C0393E80300FFF776
:100830009DFE3B1D1846FFF7BFFE044B00221A70B9
:10084000FB7918461837BD4680BD00BF7C020020EA
:1008500080B584B000AF07F1080300221A605A6027
:100860000D237B7207F1080393E80300FFF77EFE78
:100870004FF47A7000F06CFD3B461846FFF79CFE83
:10088000BB781946FB781A46034807F0DFFFFB7870
:1008900018461037BD4680BD6C96000880B582B002
:1008A00000AF3B4600221A605A6092237B703B46A1
:1008B00093E80300FFF7F4FE0346BB713B4693E861
:1008C0000300FFF753FE00BF0837BD4680BD0000A0
:1008D00080B500AF00F0CAFC00F024F800F0F4F896
:1008E00007F04AFA00F09CF800F0C4F800F084F831
:1008F000FFF7F5FE01220749074803F096F8074B7A
:100900001B781A46064B53F822309847322000F0E5
:100910001FFDF4E734020020EC0100207C020020DF
:100920007897000880B594B000AF07F1200330221B
:100930000021184608F0D0F807F10C0300221A60D5
:100940005A609A60DA601A610023BB60284B1B6C06
:10095000274A43F080531364254B1B6C03F08053EC
:10096000BB60BB6800237B60224B1B68214A43F4B9
:10097000804313601F4B1B6803F480437B607B68DC
:1009800001233B624FF480337B620223BB634FF44D
:100990008003FB6304233B64A8237B640223BB64C2
:1009A0000723FB6407F12003184602F0A1FA03466F
:1009B000002B01D000F044F90F23FB6002233B61C0
:1009C00000237B614FF4A053BB614FF48053FB6164
:1009D00007F10C030521184602F002FD0346002B27
:1009E00001D000F02DF900BF5037BD4680BD00BFDB
:1009F000003802400070004080B500AF064B074A47
:100A00001A60054802F00CFF0346002B01D000F0ED
:100A100017F900BF80BD00BF9401002000080650F8
:100A200080B500AF114B124A1A60104B4FF4E132FF
:100A30005A600E4B00229A600C4B0022DA600B4B7E
:100A400000221A61094B0C225A61084B00229A615C
:100A5000064B0022DA61054802F00CFF0346002B2A
:100A600001D000F0EDF800BF80BD00BFA401002060
:100A7000004C004080B500AF114B124A1A60104B79
:100A80004FF4E1325A600E4B00229A600C4B002268
:100A9000DA600B4B00221A61094B0C225A61084B99
:100AA00000229A61064B0022DA61054802F0E2FE5C
:100AB0000346002B01D000F0C3F800BF80BD00BF8B
:100AC000EC0100200050004080B58AB000AF07F173
:100AD000140300221A605A609A60DA601A610023D7
:100AE0003B612D4B1B6B2C4A43F0800313632A4B55
:100AF0001B6B03F080033B613B690023FB60264BCB
:100B00001B6B254A43F001031363234B1B6B03F05C
:100B10000103FB60FB680023BB601F4B1B6B1E4A7D
:100B200043F0080313631C4B1B6B03F00803BB600B
:100B3000BB6800237B60184B1B6B174A43F0040310
:100B40001363154B1B6B03F004037B607B6800226F
:100B50004FF47041114800F05FFF01237B610023D7
:100B6000BB610023FB6107F1140319460C4800F038
:100B7000B7FD4FF470437B610123BB610023FB6130
:100B800000233B6207F114031946044800F0A8FD56
:100B900000BF2837BD4680BD00380240000C02402F
:100BA0000000024080B584B000AFF860B9607A60A0
:100BB0007B689AB26423B968034802F0ABFE7B6895
:100BC00018461037BD4680BDEC01002080B582B0CC
:100BD00000AF7860164B1B78082B02D1144B002213
:100BE0001A7001221349786802F01FFF104B1B781E
:100BF000002B03D00E4B1B78072B09D10D4B1B7814
:100C0000F52B05D04FF480510B4800F01EFF0CE08F
:100C1000074B1B781A46074B1978084B9954044B1D
:100C20001B780133DAB2024B1A700837BD4680BD1B
:100C30009001002034020020000C024088010020B6
:100C400080B400AF72B600BFFEE7000080B483B08E
:100C500000AF00237B60104B5B6C0F4A43F4804372
:100C600053640D4B5B6C03F480437B607B68002313
:100C70003B60094B1B6C084A43F080531364064BDE
:100C80001B6C03F080533B603B6800BF0C37BD46D4
:100C90005DF8047B704700BF0038024080B485B027
:100CA00000AF78607B681B680B4A93420DD100232C
:100CB000FB600A4B5B6B094A43F040035363074BED
:100CC0005B6B03F04003FB60FB6800BF1437BD465D
:100CD0005DF8047B704700BF0008065000380240F2
:100CE00080B58CB000AF786007F11C0300221A6059
:100CF0005A609A60DA601A617B681B68464A9342C0
:100D00002DD10023BB61454B1B6C444A43F40023A7
:100D10001364424B1B6C03F40023BB61BB690023CB
:100D20007B613E4B1B6B3D4A43F0040313633B4B1B
:100D30001B6B03F004037B617B694FF44063FB6131
:100D400002233B6200237B620323BB620823FB6216
:100D500007F11C031946324800F0C2FC57E07B68DB
:100D60001B68304A934252D100233B612B4B1B6CD2
:100D70002A4A43F480131364284B1B6C03F480133A
:100D80003B613B690023FB60244B1B6B234A43F010
:100D900004031363214B1B6B03F00403FB60FB682C
:100DA0000023BB601D4B1B6B1C4A43F008031363FD
:100DB0001A4B1B6B03F00803BB60BB684FF48053F6
:100DC000FB6102233B6200237B620323BB62082397
:100DD000FB6207F11C031946114800F081FC042353
:100DE000FB6102233B6200237B620323BB62082377
:100DF000FB6207F11C0319460B4800F071FC00224E
:100E00000021352000F0A3FB352000F0BCFB00BF23
:100E10003037BD4680BD00BF004C00400038024066
:100E20000008024000500040000C024080B400AFB7
:100E3000FEE780B400AFFEE780B400AFFEE780B409
:100E400000AFFEE780B400AFFEE780B400AF00BFA4
:100E5000BD465DF8047B704780B400AF00BFBD465F
:100E60005DF8047B704780B400AF00BFBD465DF8FD
:100E7000047B704780B500AF00F04AFA00BF80BD28
:100E800080B500AF024802F0F5FD00BF80BD00BF95
:100E9000EC01002080B500AF024800F034FF00BF35
:100EA00080BD00BF6407002080B586B000AFF86049
:100EB000B9607A6000237B610AE0AFF300800146ED
:100EC000BB685A1CBA60CAB21A707B6901337B6175
:100ED0007A697B689A42F0DB7B6818461837BD4612
:100EE00080BD80B483B000AF78604FF0FF33184608
:100EF0000C37BD465DF8047B704780B483B000AF0B
:100F0000786039603B684FF400525A6000231846FD
:100F10000C37BD465DF8047B704780B483B000AFEA
:100F20007860012318460C37BD465DF8047B704796
:100F300080B485B000AFF860B9607A6000231846CD
:100F40001437BD465DF8047B7047000080B586B05D
:100F500000AF7860144A154BD31A7B617B693B6103
:100F6000134B1B68002B02D1114B124A1A60104B15
:100F70001A687B6813443A699A4207D207F0FAFD6F
:100F800003460C221A604FF0FF3309E0084B1B6840
:100F9000FB60074B1A687B681344054A1360FB68C3
:100FA00018461837BD4680BD00000220000400002E
:100FB00038020020F00D002080B400AF064BD3F8BB
:100FC0008830054A43F47003C2F8883000BFBD463C
:100FD0005DF8047B704700BF00ED00E084B080B591
:100FE00000AF07F1080C8CE80F00402107F1080062
:100FF00006F03AFF00BFBD46BDE8804004B0704730
:1010000080B500AF044807F087FC4FF4967000F0FD
:101010009FF900BF80BD00BF90960008B0B59EB09C
:101020000CAF3B1D40220021184607F055FD01235F
:101030003B71174807F070FC00237B640EE0154BF2
:101040001A687B6C13441B780A33D9B2BA1D7B6CC7
:1010500013440A461A707B6C01337B647B6C122B41
:10106000EDDD6D4607F114040FCC0FC50FCC0FC595
:1010700094E80F0085E80F003B1D0FCBFFF7AEFF94
:10108000054B00221A7000BF4837BD46B0BD00BFF7
:10109000A4960008040000207C020020B0B59CB09B
:1010A0000CAF394B5B781946374B9B781A4637485B
:1010B00007F0CCFB344B1B783B70334B5B787B7079
:1010C000334ABB1C12881A803B1D3C220021184663
:1010D00007F002FD2C4B5B78023B052B31D801A2B7
:1010E00052F823F0FD100008071100081111000844
:1010F0002B110008311100083D110008FFF772FBA9
:101100000346BB701DE0FFF7A3FB0346BB7018E06E
:101110004FF480411F4800F098FC1B4B9B78184609
:10112000FFF708FB0346BB700BE0FFF7B7FB08E0D7
:10113000154B9B781846FFF725FB02E0FFF73AFBBB
:1011400000BF6D4607F110040FCC0FC50FCC0FC5C3
:1011500094E80F0085E80F003B460FCBFFF73EFFFA
:101160007B781946BB781A460B4807F06FFB4FF4A3
:101170000041084800F069FC084B00221A7000BFCB
:101180004037BD46B0BD00BF3C020020BC96000801
:10119000EC960008000C0240E09600087C0200205B
:1011A000B0B59EB00CAF1A4807F0B6FB3B1D40220D
:1011B0000021184607F090FC03233B71154ABB1D24
:1011C0001188927819809A7007F109033B22002157
:1011D000184607F081FC0023A7F846300EE06D4664
:1011E00007F114040FCC0FC50FCC0FC594E80F0006
:1011F00085E80F003B1D0FCBFFF7F0FEB7F8463038
:10120000132BECD900BF00BF4837BD46B0BD00BFAF
:10121000F096000804970008DFF834D0FFF7CCFE02
:101220000C480D490D4A002302E0D458C450043341
:10123000C4188C42F9D30A4A0A4C002301E0136017
:101240000432A242FBD307F09BFCFFF741FB70473F
:1012500000000220000000206C010020CC97000854
:101260006C010020EC0D0020FEE7000080B500AF0F
:101270000E4B1B680D4A43F4007313600B4B1B6845
:101280000A4A43F480631360084B1B68074A43F41F
:1012900080731360032000F04FF90F2000F008F86E
:1012A000FFF7D4FC0023184680BD00BF003C02407D
:1012B00080B582B000AF7860124B1A68124B1B7871
:1012C00019464FF47A73B3FBF1F3B2FBF3F318460C
:1012D00000F067F90346002B01D001230EE07B6884
:1012E0000F2B0AD8002279684FF0FF3000F02FF959
:1012F000064A7B681360002300E001231846083784
:10130000BD4680BD000000200C0000200800002029
:1013100080B400AF064B1B781A46064B1B6813447B
:10132000044A136000BFBD465DF8047B704700BFF0
:101330000C0000208002002080B400AF034B1B682B
:101340001846BD465DF8047B704700BF8002002050
:1013500080B584B000AF7860FFF7EEFFB8607B68BF
:10136000FB60FB68B3F1FF3F05D00A4B1B781A46C0
:10137000FB681344FB6000BFFFF7DEFF0246BB685B
:10138000D31AFA689A42F7D800BF00BF1037BD469B
:1013900080BD00BF0C00002080B485B000AF786035
:1013A0007B6803F00703FB600C4BDB68BB60BA682B
:1013B0004FF6FF031340BB60FB681A02BB68134380
:1013C00043F0BF6343F40033BB60044ABB68D3609F
:1013D00000BF1437BD465DF8047B704700ED00E0A8
:1013E00080B400AF044BDB681B0A03F00703184608
:1013F000BD465DF8047B704700ED00E080B483B02B
:1014000000AF0346FB7197F90730002B0BDBFB792C
:1014100003F01F02074997F907305B09012000FA22
:1014200002F241F8232000BF0C37BD465DF8047B73
:10143000704700BF00E100E080B483B000AF034616
:101440003960FB7197F90730002B0ADB3B68DAB291
:101450000C4997F907301201D2B20B4483F80023EC
:101460000AE03B68DAB20849FB7903F00F03043B5A
:101470001201D2B20B441A7600BF0C37BD465DF89C
:10148000047B704700E100E000ED00E080B489B02B
:1014900000AFF860B9607A60FB6803F00703FB6196
:1014A000FB69C3F10703042B28BF0423BB61FB695D
:1014B0000433062B02D9FB69033B00E000237B6168
:1014C0004FF0FF32BB6902FA03F3DA43BB681A40FC
:1014D0007B699A404FF0FF317B6901FA03F3D943EE
:1014E0007B680B40134318462437BD465DF8047BE8
:1014F0007047000080B582B000AF78607B68013B28
:10150000B3F1807F01D301230FE00A4A7B68013BDE
:1015100053600F214FF0FF30FFF78EFF054B002285
:101520009A60044B07221A60002318460837BD460C
:1015300080BD00BF10E000E080B582B000AF7860F1
:101540007868FFF729FF00BF0837BD4680BD80B52A
:1015500086B000AF0346B9607A60FB7300237B61FD
:10156000FFF73EFF78617A68B9687869FFF78EFF08
:10157000024697F90F3011461846FFF75DFF00BF8E
:101580001837BD4680BD80B582B000AF0346FB7101
:1015900097F907301846FFF731FF00BF0837BD46FF
:1015A00080BD80B582B000AF78607868FFF7A2FF99
:1015B000034618460837BD4680BD80B584B000AFED
:1015C00078607B689B6DFB60FFF7B6FEB8607B6858
:1015D00093F83530DBB2022B08D07B6880225A6545
:1015E0007B68002283F83420012352E07B681B686B
:1015F0001A687B681B6822F016021A607B681B68F9
:101600005A697B681B6822F080025A617B681B6CF8
:10161000002B03D17B689B6C002B07D07B681B6879
:101620001A687B681B6822F008021A607B681B68D6
:101630001A687B681B6822F001021A6013E0FFF74A
:101640007BFE0246BB68D31A052B0CD97B6820228F
:101650005A657B68032283F835207B68002283F873
:101660003420032315E07B681B681B6803F001032B
:10167000002BE4D17B68DB6D3F229A40FB689A60C7
:101680007B68012283F835207B68002283F83420B0
:10169000002318461037BD4680BD80B483B000AF2C
:1016A00078607B6893F83530DBB2022B04D07B681E
:1016B00080225A6501230CE07B68052283F83520DF
:1016C0007B681B681A687B681B6822F001021A603D
:1016D000002318460C37BD465DF8047B70470000B8
:1016E00080B489B000AF7860396000237B6100234B
:1016F0003B610023BB610023FB616BE10122FB69BD
:1017000002FA03F37B613B681B687A6913403B6113
:101710003A697B699A4240F05A813B685B6803F002
:101720000303012B05D03B685B6803F00303022B26
:1017300030D17B689B68BB61FB695B00032202FAC6
:1017400003F3DB43BA691340BB613B68DA68FB69AA
:101750005B0002FA03F3BA691343BB617B68BA69A1
:101760009A607B685B68BB610122FB6902FA03F344
:10177000DB43BA691340BB613B685B681B0903F03C
:101780000102FB6902FA03F3BA691343BB617B6888
:10179000BA695A603B685B6803F00303032B17D0F8
:1017A0007B68DB68BB61FB695B00032202FA03F321
:1017B000DB43BA691340BB613B689A68FB695B0015
:1017C00002FA03F3BA691343BB617B68BA69DA6052
:1017D0003B685B6803F00303022B23D1FB69DA0843
:1017E0007B68083253F82230BB61FB6903F00703C2
:1017F0009B000F2202FA03F3DB43BA691340BB617B
:101800003B681A69FB6903F007039B0002FA03F3C4
:10181000BA691343BB61FB69DA087B680832B969AE
:1018200043F822107B681B68BB61FB695B000322E5
:1018300002FA03F3DB43BA691340BB613B685B68A0
:1018400003F00302FB695B0002FA03F3BA69134376
:10185000BB617B68BA691A603B685B6803F440331C
:10186000002B00F0B4800023FB60604B5B6C5F4A90
:1018700043F4804353645D4B5B6C03F48043FB6033
:10188000FB685B4AFB699B08023352F82330BB615B
:10189000FB6903F003039B000F2202FA03F3DB430F
:1018A000BA691340BB617B68524A93422BD07B6874
:1018B000514A934225D07B68504A93421FD07B689F
:1018C0004F4A934219D07B684E4A934213D07B68AB
:1018D0004D4A93420DD07B684C4A934207D07B68B7
:1018E0004B4A934201D107230EE008230CE0062364
:1018F0000AE0052308E0042306E0032304E00223B2
:1019000002E0012300E00023FA6902F003029200E2
:101910009340BA691343BB613549FB699B080233A5
:10192000BA6941F823203B4B9B68BB613B69DB43B1
:10193000BA691340BB613B685B6803F48013002BFA
:1019400003D0BA693B691343BB61324ABB699360F8
:10195000304BDB68BB613B69DB43BA691340BB6159
:101960003B685B6803F40013002B03D0BA693B6942
:101970001343BB61274ABB69D360264B5B68BB61DD
:101980003B69DB43BA691340BB613B685B6803F4A6
:101990000033002B03D0BA693B691343BB611D4A76
:1019A000BB6953601B4B1B68BB613B69DB43BA6976
:1019B0001340BB613B685B6803F48033002B03D0AA
:1019C000BA693B691343BB61124ABB691360FB6987
:1019D0000133FB61FB690F2B7FF690AE00BF00BFA8
:1019E0002437BD465DF8047B704700BF00380240D5
:1019F000003801400000024000040240000802409C
:101A0000000C024000100240001402400018024086
:101A1000001C0240003C014080B483B000AF7860FD
:101A20000B467B8013467B707B78002B03D07A8833
:101A30007B689A6103E07B881A047B689A6100BF27
:101A40000C37BD465DF8047B704780B485B000AFAD
:101A500078600B467B807B685B69FB607A88FB68FB
:101A600013401A04FB68D9437B880B401A437B68F8
:101A70009A6100BF1437BD465DF8047B704780B59E
:101A800086B002AF78607B68002B01D1012301E1B1
:101A90007B681B68BB607B6893F89534DBB2002BD6
:101AA00006D17B68002283F89424786806F0FCFA5B
:101AB0007B68032283F89524BB68B3F1A04F02D161
:101AC0007B6800229A717B681B68184603F03FF818
:101AD0007B6818687B681A7C8DF8002004330ECB75
:101AE00002F01EFF0346002B05D07B68022283F81C
:101AF00095240123CEE07B681B680021184603F083
:101B000037F80346002B05D07B68022283F8952422
:101B10000123BFE00023FB734AE0FA7B7968134698
:101B2000DB0013449B000B44153301221A70FA7B2F
:101B300079681346DB0013449B000B441433FA7B93
:101B40001A70FA7BFB7B98B279681346DB0013446A
:101B50009B000B442E3302461A80FA7B79681346A9
:101B6000DB0013449B000B44183300221A70FA7BED
:101B700079681346DB0013449B000B441C3300229E
:101B80001A60FA7B79681346DB0013449B000B4410
:101B9000203300221A60FA7B79681346DB00134475
:101BA0009B000B44243300221A60FB7B0133FB7340
:101BB0007B681B79FA7B9A42AFD30023FB7344E026
:101BC000FA7B79681346DB0013449B000B4403F255
:101BD000552300221A70FA7B79681346DB00134400
:101BE0009B000B4403F51573FA7B1A70FA7B796836
:101BF0001346DB0013449B000B4403F516730022CD
:101C00001A70FA7B79681346DB0013449B000B447F
:101C100003F5177300221A60FA7B79681346DB001C
:101C200013449B000B4403F5187300221A60FA7BDF
:101C300079681346DB0013449B000B4403F51973CA
:101C400000221A60FB7B0133FB737B681B79FA7BF4
:101C50009A42B5D37B6818687B681A7C8DF800209F
:101C600004330ECB02F0D0FF0346002B05D07B6877
:101C7000022283F8952401230CE07B6800225A7429
:101C80007B68012283F895247B681B68184604F062
:101C900014F8002318461037BD4680BD80B584B0C7
:101CA00000AF78607B681B68FB607B6893F89434B6
:101CB000012B01D1022322E07B68012283F89424C6
:101CC000FB68DB6803F04003002B09D07B685B7B7B
:101CD000012B05D1FB689B6B43F48032FB689A6350
:101CE0007B681B68184602F021FF7B681B6818465A
:101CF00003F0C2FF7B68002283F894240023184677
:101D00001037BD4680BD90B58DB000AF78607B6860
:101D10001B683B623B6AFB617B681B68184604F0EA
:101D200080F80346002B40F08C847B681B681846C3
:101D300003F0E4FF0346002B00F08284FB6903F507
:101D400000639B681B0AC3F30D027B68C3F8D424AD
:101D50007B681B68184603F0D1FF034603F00203BB
:101D6000022B07D17B681B685A697B681B6802F0ED
:101D700002025A617B681B68184603F0BFFF0346E6
:101D800003F01003102B61D17B681B689A697B6894
:101D90001B6822F010029A613B6A1B6ABB61BB6937
:101DA00003F00F021346DB0013449B0003F514738A
:101DB0007A68134404337B61BB695B0C03F00F0347
:101DC000022B24D1BA6947F6F0731340002B35D0AB
:101DD0007B69D968BB691B099BB2C3F30A039BB239
:101DE0001A46386A03F0F6FD7B69DA68BB691B099D
:101DF000C3F30A031A447B69DA607B695A69BB69D9
:101E00001B09C3F30A031A447B695A6116E0BB69D4
:101E10005B0C03F00F03062B10D17B6803F29C438D
:101E200008221946386A03F0D5FD7B695A69BB69F7
:101E30001B09C3F30A031A447B695A617B681B6858
:101E40009A697B681B6842F010029A617B681B6884
:101E5000184603F053FF034603F40023B3F5002FA5
:101E600040F0A78000237B627B681B68184603F064
:101E700058FFB86299E0BB6A03F00103002B00F041
:101E80008E807B681B687A6AD2B21146184603F0CE
:101E90007CFF38613B6903F00103002B0CD07B6AA7
:101EA0005A01FB69134403F530631A46012393601A
:101EB000796A786800F08AFE3B6903F00803002B1A
:101EC0000CD07B6A5A01FB69134403F530631A4650
:101ED00008239360796A786800F060FF3B6903F03B
:101EE0001003002B08D07B6A5A01FB69134403F5E9
:101EF00030631A46102393603B6903F00203002B02
:101F000030D03B6A5B6903F08003802B09D1FB6909
:101F100003F500635B68FA6902F5006243F48063CD
:101F200053607A6A1346DB0013449B0003F5147375
:101F30007A68134404337B617B69DB78012B08D119
:101F40007B690022DA707B6ADBB21946786806F09A
:101F5000BFF97B6A5A01FB69134403F530631A46E3
:101F6000022393603B6903F02003002B08D07B6AB7
:101F70005A01FB69134403F530631A46202393602A
:101F80003B6903F40053002B09D07B6A5A01FB69BB
:101F9000134403F530631A464FF4005393607B6A91
:101FA00001337B62BB6A5B08BB62BB6A002B7FF4B8
:101FB00062AF7B681B68184603F0A0FE034603F47B
:101FC0008023B3F5802F40F0DB807B681B681846C8
:101FD00003F0C1FEB86200237B62CDE0BB6A03F070
:101FE0000103002B00F0C2807B681B687A6AD2B2C2
:101FF0001146184603F0E7FE38613B6903F0010320
:10200000002B57D07B6A03F00F03012202FA03F37F
:10201000FB60FB6903F500635A6BFB68DB43F969FE
:1020200001F5006113404B637B6A5A01FB6913445D
:1020300003F510631A46012393607B689B79012B9B
:1020400032D179687A6A1346DB0013449B000B4453
:102050002033196878687A6A1346DB0013449B00C2
:1020600003441C331B68194478687A6A1346DB0002
:1020700013449B000344203319607B6A002B13D167
:1020800079687A6A1346DB0013449B000B442433BF
:102090001B68002B08D17B6818687B6803F29C439F
:1020A0001A46012103F0EEFE7B6ADBB2194678681E
:1020B00006F089F83B6903F00803002B08D07B6A1F
:1020C0005A01FB69134403F510631A460823936011
:1020D0003B6903F01003002B08D07B6A5A01FB69AF
:1020E000134403F510631A46102393603B6903F011
:1020F0004003002B08D07B6A5A01FB69134403F5A7
:1021000010631A46402393603B6903F00203002BDF
:1021100023D0796A386A02F0DBFE7A6A1346DB0064
:1021200013449B0010337A68134404337B617B694A
:10213000DB78012B08D17B690022DA707B6ADBB285
:102140001946786806F0D6F87B6A5A01FB69134491
:1021500003F510631A46022393603B6903F0800382
:10216000002B03D0796A786800F0A3FC7B6A013306
:102170007B62BB6A5B08BB62BB6A002B7FF42EAF3D
:102180007B681B68184603F0B9FD034603F0004363
:10219000B3F1004F22D1FB6903F500635B68FA6974
:1021A00002F5006223F0010353607B6893F8CC349E
:1021B000012B08D17B68002283F8CC2400217868A9
:1021C00000F08AFE02E0786806F074F87B681B680D
:1021D0005A697B681B6802F000425A617B681B6881
:1021E000184603F08BFD034603F40063B3F5006F5C
:1021F00012D1FB6903F500639B6803F00103012B17
:1022000002D1786806F030F87B681B685A697B68F1
:102210001B6802F400625A617B681B68184603F071
:102220006DFD034603F48053B3F5805F40F0B78043
:10223000FB6903F500635B68FA6902F5006223F04D
:10224000010353607B681B681021184602F040FEB2
:102250000023FB6246E0FB6A5A01FB69134403F565
:1022600010631A464FF67F339360FB6A5A01FB698D
:10227000134403F510631B68FA6A5101FA690A44B2
:1022800002F5106223F400131360FB6A5A01FB6924
:10229000134403F530631A464FF67F339360FB6AAD
:1022A0005A01FB69134403F530631B68FA6A510154
:1022B000FA690A4402F5306223F400131360FB6AE2
:1022C0005A01FB69134403F530631B68FA6A510134
:1022D000FA690A4402F5306243F000631360FB6A56
:1022E0000133FB627B681B791A46FB6A9342B2D3C7
:1022F000FB6903F50063DB69FA6902F5006243F0EC
:102300000113D3617B68DB7B002B16D0FB6903F5DF
:102310000063D3F88430FA6902F5006243F00B03DE
:10232000C2F88430FB6903F500635B6CFA6902F55F
:10233000006243F00B03536415E0FB6903F500638F
:102340005B69FA6902F5006243F4005343F02B0322
:102350005361FB6903F500631B69FA6902F50062CA
:1023600043F00B031361FB6903F500631B68FA6913
:1023700002F5006223F4FE6313607B6818687B68D3
:1023800099797B6803F29C431A4603F07BFD7B68D6
:102390001B685A697B681B6802F480525A617B682B
:1023A0001B68184603F0AAFC034603F40053B3F578
:1023B000005F23D17B681B68184603F040FD7B68F3
:1023C0001B68184602F0FDFD03461A467B68DA7169
:1023D0007B681C6801F0F0F901467B68DB791A46DE
:1023E000204602F001FB786805F015FF7B681B684A
:1023F0005A697B681B6802F400525A617B681B684B
:10240000184603F07BFC034603F00803082B0AD1AF
:10241000786805F0F2FE7B681B685A697B681B6868
:1024200002F008025A617B681B68184603F066FCDC
:10243000034603F08003802B23D13B6A9B6923F082
:1024400080023B6A9A6101237B6214E079687A6AB0
:102450001346DB0013449B000B4403F257231B7805
:10246000012B05D17B6ADBB21946786800F0F0FADF
:102470007B6A01337B627B681B791A467B6A9342D5
:10248000E4D37B681B68184603F038FC034603F46A
:102490008013B3F5801F3CD101237B622BE07B6A64
:1024A0005A01FB69134403F510631B68BB6179682B
:1024B0007A6A1346DB0013449B000B4418331B78E5
:1024C000012B15D1BB69002B12DA79687A6A1346A1
:1024D000DB0013449B000B44173301221A707B6A04
:1024E000DBB263F07F03DBB21946786800F0B0FA24
:1024F0007B6A01337B627B681B791A467B6A934255
:10250000CDD37B681B685A697B681B6802F4801214
:102510005A617B681B68184603F0F0FB034603F41E
:102520000013B3F5001F56D101237B6245E07B6A9F
:102530005A01FB69134403F530631B68BB6179687A
:102540007A6A1346DB0013449B000B4403F51673B1
:102550001B78012B2ED1BB69002B2BDABB6903F44E
:1025600080327B68D3F8D43403F001039A4221D13E
:1025700079687A6A1346DB0013449B000B4403F22C
:10258000572301221A703B6A9B6943F080023B6A21
:102590009A613B6A5B6903F08003002B0AD1FB69F7
:1025A00003F500635B68FA6902F5006243F40073A7
:1025B000536008E07B6A01337B627B681B791A46B3
:1025C0007B6A9342B3D37B681B685A697B681B683C
:1025D00002F400125A617B681B68184603F08EFBF8
:1025E000034603F08043B3F1804F0AD1786805F0C9
:1025F00093FE7B681B685A697B681B6802F0804207
:102600005A617B681B68184603F078FB034603F0A9
:102610000403042B15D17B681B685B68BB61BB6935
:1026200003F00403002B02D0786805F083FE7B687A
:102630001B6859687B681B68BA690A435A6000E0E6
:1026400000BF3437BD4690BD80B582B000AF786022
:102650000B46FB707B6893F89434012B01D1022365
:1026600012E07B68012283F894247B68FA785A741C
:102670007B681B68FA781146184603F0D7FA7B6826
:10268000002283F89424002318460837BD4680BDF5
:1026900080B584B000AF7860084611461A460346FC
:1026A000FB700B463B801346BB700023FB7297F90F
:1026B0000330002B0FDAFB7803F00F021346DB0028
:1026C00013449B0010337A6813440433FB60FB68A7
:1026D00001225A700FE0FB7803F00F021346DB0073
:1026E00013449B0003F514737A6813440433FB60AE
:1026F000FB6800225A70FB7803F00F03DAB2FB6824
:102700001A703A88FB689A60FB68BA781A71FB689D
:102710005B78002B04D0FB681B789AB2FB685A8365
:10272000BB78022B02D1FB6800225A717B6893F8B8
:102730009434012B01D102230EE07B68012283F83F
:1027400094247B681B68F968184602F05FFC7B687C
:10275000002283F89424FB7A18461037BD4680BDCA
:1027600080B584B000AF78600B46FB7097F90330FA
:10277000002B0FDAFB7803F00F021346DB00134443
:102780009B0010337A6813440433FB60FB6801221A
:102790005A700FE0FB7803F00F021346DB0013447E
:1027A0009B0003F514737A6813440433FB60FB68E1
:1027B00000225A70FB7803F00F03DAB2FB681A703C
:1027C0007B6893F89434012B01D102230EE07B68DF
:1027D000012283F894247B681B68F968184602F08C
:1027E0009DFC7B68002283F8942400231846103750
:1027F000BD4680BD80B586B000AFF8607A603B60B2
:102800000B46FB72FB7A03F00F021346DB00134406
:102810009B0003F51473FA68134404337B617B69EE
:102820007A68DA607B693A681A617B6900225A61CA
:102830007B6900225A70FB7A03F00F03DAB27B69DE
:102840001A70FB689B79012B02D17A687B69DA6187
:10285000FB681868FB689B791A46796902F03AFDB3
:10286000002318461837BD4680BD80B586B000AF3E
:10287000F8607A603B600B46FB72FB7A03F00F0254
:102880001346DB0013449B001033FA6813440433EF
:102890007B617B697A68DA607B693A681A617B6977
:1028A00000225A617B6901225A70FB7A03F00F0300
:1028B000DAB27B691A70FB689B79012B02D17A68C6
:1028C0007B69DA61FB681868FB689B791A4679694D
:1028D00002F000FD002318461837BD4680BD80B5C4
:1028E00084B000AF78600B46FB70FB7803F00F03F9
:1028F0007A681279934201D901234FE097F90330A6
:10290000002B0FDAFB7803F00F021346DB001344B1
:102910009B0010337A6813440433FB60FB68012288
:102920005A700DE0FA781346DB0013449B0003F560
:1029300014737A6813440433FB60FB6800225A70F6
:10294000FB6801229A70FB7803F00F03DAB2FB6890
:102950001A707B6893F89434012B01D102231DE097
:102960007B68012283F894247B681B68F968184609
:1029700003F088F8FB7803F00F03002B09D17B6884
:1029800018687B6899797B6803F29C431A4603F0C8
:1029900079FA7B68002283F89424002318461037C4
:1029A000BD4680BD80B584B000AF78600B46FB703B
:1029B000FB7803F00F037A681279934201D901235F
:1029C00042E097F90330002B0FDAFB7803F00F0297
:1029D0001346DB0013449B0010337A68134404331E
:1029E000FB60FB6801225A700FE0FB7803F00F02D6
:1029F0001346DB0013449B0003F514737A681344F9
:102A00000433FB60FB6800225A70FB6800229A7056
:102A1000FB7803F00F03DAB2FB681A707B6893F857
:102A20009434012B01D102230EE07B68012283F84C
:102A300094247B681B68F968184603F091F87B685A
:102A4000002283F89424002318461037BD4680BD29
:102A500080B584B000AF78600B46FB7097F9033007
:102A6000002B0CDAFB7803F00F021346DB00134453
:102A70009B0010337A6813440433FB600CE0FB784E
:102A800003F00F021346DB0013449B0003F514739D
:102A90007A6813440433FB607B681B68F968184646
:102AA00002F0B0FE0346FB72FB7A18461037BD46B3
:102AB00080BD80B58AB002AF786039607B681B68E2
:102AC0007B617B693B613A681346DB0013449B00E2
:102AD00010337A6813440433FB60FB685A69FB685F
:102AE0001B699A4201D901236BE0FB681A69FB68F4
:102AF0005B69D31AFB61FB689B68FA699A4202D949
:102B0000FB689B68FB61FB6903339B08BB612AE0A0
:102B1000FB681A69FB685B69D31AFB61FB689B68F9
:102B2000FA699A4202D9FB689B68FB61FB6903332F
:102B30009B08BB61FB68D9683B68DAB2FB6998B255
:102B40007B689B7900930346786902F005FFFB6878
:102B5000DA68FB691A44FB68DA60FB685A69FB694A
:102B60001A44FB685A613B685A013B69134403F5F8
:102B700010639B699BB2BA699A4209D8FB685A698B
:102B8000FB681B699A4203D2FB681B69002BBFD10B
:102B9000FB681A69FB685B699A4211D83B6803F0CD
:102BA0000F03012202FA03F3BB603B6903F50063E4
:102BB0005A6BBB68DB43396901F5006113404B6315
:102BC000002318462037BD4680BD000080B588B080
:102BD00000AF786039607B681B68FB61FB69BB6193
:102BE000FB693C3304331B687B613B685A01BB695A
:102BF000134403F530639B683B617B689B79012B31
:102C00007BD13B6903F00803002B15D07B69614A37
:102C1000934240F2B9803B6903F40043002B00F07B
:102C2000B3803B685A01BB69134403F530631A460D
:102C30004FF400439360A7E03B6903F02003002BAF
:102C400009D03B685A01BB69134403F530631A4647
:102C50002023936098E03B6903F02803002B40F0A9
:102C600093807B694B4A93420FD93B6903F400433D
:102C7000002B0AD03B685A01BB69134403F530634B
:102C80001A464FF4004393607EE03A681346DB0037
:102C900013449B0003F514737A6813440433FB60F8
:102CA000FB681A6A3B685901BB690B4403F5306342
:102CB0001B69C3F31203D21AFB685A613B68002BED
:102CC00014D1FB681B69002B09D17B6818687B68ED
:102CD00003F29C431A46012103F0D4F806E0FB6896
:102CE000DA68FB685B691A44FB68DA603B68DBB250
:102CF0001946786805F04CFA46E07B69264A93420B
:102D000024D13B6903F40043002B0AD03B685A01ED
:102D1000BB69134403F530631A464FF400439360D4
:102D200032E03B6903F02003002B08D03B685A01D6
:102D3000BB69134403F530631A46202393603B6854
:102D4000DBB21946786805F023FA1DE03B68002BDA
:102D500014D179683A681346DB0013449B000B4496
:102D600003F519731B68002B08D17B6818687B6812
:102D700003F29C431A46002103F084F83B68DBB25F
:102D80001946786805F004FA002318462037BD4636
:102D900080BD00BF0A30544F0A31544F80B586B011
:102DA00000AF786039607B681B687B617B693B6141
:102DB0007B693C3304331B68FB603B685A013B6909
:102DC000134403F530639B68BB60FB68154A93426C
:102DD0000ED9BB6803F40043002B09D03B685A01AD
:102DE0003B69134403F530631A464FF40043936084
:102DF000786805F0BBF9FB680A4A93420CD97B68F6
:102E00009B79012B08D17B6818687B6803F29C438F
:102E10001A46012103F036F8002318461837BD463C
:102E200080BD00BF0A30544F80B485B000AF7860D9
:102E30000B46FB7013463B807B681B685B6ABB607C
:102E4000FB78002B07D13B8819047B681B68BA68A4
:102E50000A439A6228E07B681B689B6A1B0CBA686D
:102E60001344BB600023FB730DE07B681A68FB7B97
:102E700040339B0013445B681B0CBA681344BB606F
:102E8000FB7B0133FB73FA7BFB78013B9A42ECD36B
:102E90003B8818047B681968FB78013BBA680243D9
:102EA00040339B000B445A60002318461437BD463C
:102EB0005DF8047B704780B483B000AF78600B4648
:102EC0007B807B681B687A885A62002318460C371F
:102ED000BD465DF8047B704780B483B000AF786076
:102EE0000B46FB7000BF0C37BD465DF8047B704796
:102EF00080B586B000AF78607B68002B01D10123DC
:102F000067E27B681B6803F00103002B75D0884BD8
:102F10009B6803F00C03042B0CD0854B9B6803F0DB
:102F20000C03082B12D1824B5B6803F48003B3F5CA
:102F3000800F0BD17E4B1B6803F40033002B5BD05A
:102F40007B685B68002B57D1012342E27B685B689A
:102F5000B3F5803F06D1764B1B68754A43F4803346
:102F600013601DE07B685B68B3F5A02F0CD1704B3C
:102F70001B686F4A43F4802313606D4B1B686C4AD7
:102F800043F4803313600BE0694B1B68684A23F4F9
:102F900080331360664B1B68654A23F480231360FB
:102FA0007B685B68002B13D0FEF7C6F9386108E038
:102FB000FEF7C2F902463B69D31A642B01D90323F9
:102FC00007E25B4B1B6803F40033002BF0D014E0E6
:102FD000FEF7B2F9386108E0FEF7AEF902463B6948
:102FE000D31A642B01D90323F3E1514B1B6803F47B
:102FF0000033002BF0D100E000BF7B681B6803F0BA
:103000000203002B63D04A4B9B6803F00C03002B98
:103010000BD0474B9B6803F00C03082B1CD1444B8F
:103020005B6803F48003002B16D1414B1B6803F04F
:103030000203002B05D07B68DB68012B01D0012344
:10304000C7E13B4B1B6823F0F8027B681B69DB0080
:10305000374913430B603AE07B68DB68002B20D0D4
:10306000344B01221A60FEF767F9386108E0FEF779
:1030700063F902463B69D31A022B01D90323A8E165
:103080002B4B1B6803F00203002BF0D0284B1B686E
:1030900023F0F8027B681B69DB00254913430B60B2
:1030A00015E0244B00221A60FEF746F9386108E06B
:1030B000FEF742F902463B69D31A022B01D90323DA
:1030C00087E11B4B1B6803F00203002BF0D17B68E8
:1030D0001B6803F00803002B36D07B685B69002B6C
:1030E00016D0154B01221A60FEF726F9386108E068
:1030F000FEF722F902463B69D31A022B01D90323BA
:1031000067E10B4B5B6F03F00203002BF0D01BE079
:10311000094B00221A60FEF70FF938610EE0FEF746
:103120000BF902463B69D31A022B07D9032350E15E
:103130000038024000004742800E4742884B5B6FD8
:1031400003F00203002BEAD17B681B6803F0040341
:10315000002B00F097800023FB75814B1B6C03F064
:103160008053002B0FD10023BB607D4B1B6C7C4A2E
:1031700043F0805313647A4B1B6C03F08053BB60A5
:10318000BB680123FB75774B1B6803F48073002B2E
:1031900018D1744B1B68734A43F480731360FEF7B5
:1031A000CBF8386108E0FEF7C7F802463B69D31A4E
:1031B000022B01D903230CE16A4B1B6803F48073D3
:1031C000002BF0D07B689B68012B06D1644B1B6FF2
:1031D000634A43F0010313671CE07B689B68052B7F
:1031E0000CD15F4B1B6F5E4A43F0040313675C4BCB
:1031F0001B6F5B4A43F0010313670BE0584B1B6FD7
:10320000574A23F001031367554B1B6F544A23F0B1
:10321000040313677B689B68002B15D0FEF78CF8BE
:1032200038610AE0FEF788F802463B69D31A41F29A
:103230008832934201D90323CBE0494B1B6F03F043
:103240000203002BEED014E0FEF776F838610AE0B6
:10325000FEF772F802463B69D31A41F28832934274
:1032600001D90323B5E03E4B1B6F03F00203002B93
:10327000EED1FB7D012B05D1394B1B6C384A23F075
:10328000805313647B689B69002B00F0A180344B52
:103290009B6803F00C03082B5CD07B689B69022BB6
:1032A00041D1314B00221A60FEF746F8386108E040
:1032B000FEF742F802463B69D31A022B01D90323D9
:1032C00087E0274B1B6803F00073002BF0D17B686D
:1032D000DA697B681B6A1A437B685B6A9B011A4345
:1032E0007B689B6A5B08013B1B041A437B68DB6AB3
:1032F0001B061B4913434B601B4B01221A60FEF750
:103300001BF8386108E0FEF717F802463B69D31A4C
:10331000022B01D903235CE0114B1B6803F00073FF
:10332000002BF0D054E0104B00221A60FEF704F896
:10333000386108E0FEF700F802463B69D31A022B19
:1033400001D9032345E0064B1B6803F00073002BF3
:10335000F0D13DE07B689B69012B07D1012338E068
:103360000038024000700040600047421B4B5B6821
:10337000FB607B689B69012B28D0FB6803F480020B
:103380007B68DB699A4221D1FB6803F03F027B68CE
:103390001B6A9A421AD1FA6847F6C07313407A68DA
:1033A000526A9201934211D1FB6803F440327B6868
:1033B0009B6A5B08013B1B049A4207D1FB6803F040
:1033C00070627B68DB6A1B069A4201D0012300E031
:1033D000002318461837BD4680BD00BF00380240A4
:1033E00080B584B000AF786039607B68002B01D174
:1033F0000123CCE0684B1B6803F007033A689A424C
:103400000CD9654B3A68D2B21A70634B1B6803F053
:1034100007033A689A4201D00123B8E07B681B6831
:1034200003F00203002B20D07B681B6803F0040329
:10343000002B05D0594B9B68584A43F4E0539360E6
:103440007B681B6803F00803002B05D0534B9B6877
:10345000524A43F460439360504B9B6823F0F00260
:103460007B689B684D4913438B607B681B6803F046
:103470000103002B44D07B685B68012B07D1474BCD
:103480001B6803F40033002B19D101237FE07B6814
:103490005B68022B03D07B685B68032B07D13F4B33
:1034A0001B6803F00073002B09D101236FE03B4B35
:1034B0001B6803F00203002B01D1012367E0374BA7
:1034C0009B6823F003027B685B68344913438B607D
:1034D000FDF732FFF8600AE0FDF72EFF0246FB68B9
:1034E000D31A41F28832934201D903234FE02B4B88
:1034F0009B6803F00C027B685B689B009A42EBD1EF
:10350000254B1B6803F007033A689A420CD2224B02
:103510003A68D2B21A70204B1B6803F007033A686E
:103520009A4201D0012332E07B681B6803F0040358
:10353000002B08D0194B9B6823F4E0527B68DB68B2
:10354000164913438B607B681B6803F00803002B4C
:1035500009D0124B9B6823F460427B681B69DB0037
:103560000E4913438B6000F021F802460B4B9B6819
:103570001B0903F00F030A49CB5C22FA03F3094A43
:103580001360094B1B681846FDF792FE002318468E
:103590001037BD4680BD00BF003C024000380240ED
:1035A0006097000800000020080000202DE9B04FBF
:1035B00094B000AF00237B640023FB6400233B64D2
:1035C0000023BB64794B9B6803F00C03082B0DD0E0
:1035D000082B00F2E180002B02D0042B03D0DBE0AB
:1035E000734BBB64DBE0734BBB64D8E06F4B5B6831
:1035F00003F03F037B646D4B5B6803F48003002B97
:1036000063D06A4B5B689B090022BB63FA63BB6BA8
:10361000C3F308033B6300237B63D7E90C452246D1
:103620002B464FF000004FF00001590141EAD261F2
:10363000500102460B462146511A3961294663EB77
:1036400001037B614FF000024FF00003D7E904ABA8
:1036500059468B01514643EA916351468A015146CE
:10366000B2EB0108594663EB01094FF000024FF03D
:1036700000034FEAC90343EA58734FEAC802904671
:103680009946234618EB0303BB602B4649EB030323
:10369000FB604FF000024FF00003D7E902452946D6
:1036A0004B02214643EAD15321464A0210461946AD
:1036B0007B6C0022BB62FA62D7E90A23FCF7D8FDD3
:1036C00002460B461346FB6458E0384B5B689B0987
:1036D000002218461146C0F308033B6200237B62B8
:1036E000D7E9088942464B464FF000004FF00001F1
:1036F000590141EAD261500102460B464146B2EB04
:10370000010A494663EB010B4FF000024FF0000342
:103710004FEA8B1343EA9A634FEA8A12B2EB0A0428
:1037200063EB0B054FF000024FF00003EB0043EAA0
:103730005473E20014461D464346E3183B604B4673
:1037400045EB03037B604FF000024FF00003D7E925
:10375000004529468B02214643EA915321468A02BD
:10376000104619467B6C0022BB61FA61D7E906233B
:10377000FCF77EFD02460B461346FB640B4B5B6871
:103780001B0C03F0030301335B003B64FA6C3B6CDE
:10379000B2FBF3F3BB6402E0054BBB6400BFBB6C40
:1037A00018465037BD46BDE8B08F00BF0038024014
:1037B0000024F40000127A0080B400AF034B1B68B1
:1037C0001846BD465DF8047B704700BF000000202E
:1037D00080B500AFFFF7F0FF0246054B9B689B0AE0
:1037E00003F007030349CB5C22FA03F3184680BDBC
:1037F000003802407097000880B500AFFFF7DCFF8B
:103800000246054B9B685B0B03F007030349CB5C47
:1038100022FA03F3184680BD003802407097000872
:1038200080B582B000AF78607B68002B01D10123A6
:103830001CE07B685B79DBB2002B05D17B68002242
:103840001A717868FDF72AFA7B6802225A717B6840
:103850001B681A687B681B6842F004021A607B6868
:1038600001225A717B6800229A60002318460837AB
:10387000BD4680BD80B582B000AF78607B68002B0C
:1038800001D1012342E07B6893F84130DBB2002B89
:1038900006D17B68002283F840207868FDF720FA83
:1038A0007B68242283F841207B681B68DA687B6888
:1038B0001B6822F40052DA60786800F0BDFD7B6876
:1038C0001B681A697B681B6822F490421A617B6846
:1038D0001B685A697B681B6822F02A025A617B6860
:1038E0001B68DA687B681B6842F40052DA607B6808
:1038F00000225A647B68202283F841207B682022C2
:1039000083F842207B6800225A6300231846083758
:10391000BD4680BD80B58AB002AFF860B9603B603B
:103920001346FB8000237B61FB6893F84130DBB2D8
:10393000202B75D1BB68002B02D0FB88002B01D156
:1039400001236EE0FB6800225A64FB68212283F8A1
:103950004120FDF7F1FC7861FB68FA889A84FB68E6
:10396000FA88DA84FB689B68B3F5805F08D1FB684E
:103970001B69002B04D10023FB61BB68BB6103E022
:10398000BB68FB610023BB612EE03B6800937B6951
:1039900000228021F86800F01FFB0346002B05D0B1
:1039A000FB68202283F8412003233AE0FB69002BC7
:1039B0000BD1BB691B881A46FB681B68C2F308025F
:1039C0005A60BB690233BB6107E0FB691A78FB6888
:1039D0001B685A60FB690133FB61FB68DB8C9BB29F
:1039E000013B9AB2FB68DA84FB68DB8C9BB2002B4C
:1039F000CBD13B6800937B6900224021F86800F03E
:103A0000EBFA0346002B05D0FB68202283F8412007
:103A1000032306E0FB68202283F84120002300E016
:103A2000022318462037BD4680BD80B584B000AF64
:103A3000F860B9601346FB80FB6893F84230DBB254
:103A4000202B12D1BB68002B02D0FB88002B01D1A8
:103A500001230BE0FB6800221A63FB881A46B96851
:103A6000F86800F012FB034600E002231846103706
:103A7000BD4680BD80B5BAB000AF78607B681B687A
:103A80001B68C7F8E4307B681B68DB68C7F8E03068
:103A90007B681B685B69C7F8DC300023C7F8D83047
:103AA0000023C7F8D430D7F8E43003F00F03C7F889
:103AB000D830D7F8D830002B0FD1D7F8E43003F046
:103AC0002003002B09D0D7F8E03003F02003002BAF
:103AD00003D0786800F0F2FB5BE2D7F8D830002B17
:103AE00000F0DE80D7F8DC3003F00103002B06D1B4
:103AF000D7F8E03003F49073002B00F0D180D7F8B2
:103B0000E43003F00103002B0BD0D7F8E03003F4CE
:103B10008073002B05D07B685B6C43F001027B68EF
:103B20005A64D7F8E43003F00403002B0BD0D7F825
:103B3000DC3003F00103002B05D07B685B6C43F0A5
:103B400002027B685A64D7F8E43003F00203002BCA
:103B50000BD0D7F8DC3003F00103002B05D07B68D5
:103B60005B6C43F004027B685A64D7F8E43003F0DE
:103B70000803002B11D0D7F8E03003F02003002B0E
:103B800005D1D7F8DC3003F00103002B05D07B68AA
:103B90005B6C43F008027B685A647B685B6C002BAB
:103BA00000F0F281D7F8E43003F02003002B08D0B6
:103BB000D7F8E03003F02003002B02D0786800F043
:103BC0007DFB7B681B685B6903F04003402B0CBFE7
:103BD00001230023DBB2C7F8D4307B685B6C03F0B1
:103BE0000803002B03D1D7F8D430002B4FD07868CE
:103BF00000F085FA7B681B685B6903F04003402B8B
:103C000041D17B681B681433C7F89C30D7F89C30CF
:103C100053E8003FC7F89830D7F8983023F04003B6
:103C2000C7F8D0307B681B681433D7F8D020C7F8AA
:103C3000A820C7F8A430D7F8A410D7F8A82041E8E6
:103C40000023C7F8A030D7F8A030002BD9D17B686B
:103C5000DB6B002B13D07B68DB6B7E4A1A657B68BD
:103C6000DB6B1846FDF719FD0346002B16D07B6869
:103C7000DB6B1B6D7A68D26B104698470EE0786854
:103C800000F094F90AE0786800F090F906E07868AE
:103C900000F08CF97B6800225A6475E100BF73E183
:103CA0007B681B6B012B40F04F81D7F8E43003F0A9
:103CB0001003002B00F04881D7F8E03003F0100328
:103CC000002B00F041810023BB607B681B681B68F0
:103CD000BB607B681B685B68BB60BB687B681B68FC
:103CE0005B6903F04003402B40F0B6807B68DB6BE0
:103CF0001B685B68A7F8BE30B7F8BE30002B00F039
:103D000045817B689B8DB7F8BE209A4280F03E814A
:103D10007B68B7F8BE20DA857B68DB6BDB69B3F5BF
:103D2000807F00F088807B681B680C33C7F8883080
:103D3000D7F8883053E8003FC7F88430D7F884308C
:103D400023F48073C7F8B8307B681B680C33D7F84E
:103D5000B820C7F89420C7F89030D7F89010D7F85B
:103D6000942041E80023C7F88C30D7F88C30002B22
:103D7000D9D17B681B6814337B677B6F53E8003FA6
:103D80003B673B6F23F00103C7F8B4307B681B68C7
:103D90001433D7F8B420C7F88020FB67F96FD7F841
:103DA000802041E80023BB67BB6F002BE1D17B681B
:103DB0001B6814333B663B6E53E8003FFB65FB6DAD
:103DC00023F04003C7F8B0307B681B681433D7F882
:103DD000B020FA66BB66B96EFA6E41E800237B66D6
:103DE0007B6E002BE3D17B68202283F842207B6826
:103DF00000221A637B681B680C33FB64FB6C53E87E
:103E0000003FBB64BB6C23F01003C7F8AC307B6889
:103E10001B680C33D7F8AC20BA657B65796DBA6D39
:103E200041E800233B653B6D002BE3D17B68DB6BF6
:103E30001846FDF7C2FB7B6802225A637B689A8DA5
:103E40007B68DB8D9BB2D31A9BB21946786800F071
:103E5000B7F89BE0C54100087B689A8D7B68DB8DD5
:103E60009BB2D31AA7F8CE307B68DB8D9BB2002BB8
:103E700000F08E80B7F8CE30002B00F089807B6890
:103E80001B680C33BB63BB6B53E8003F7B637B6BEE
:103E900023F49073C7F8C8307B681B680C33D7F8DD
:103EA000C8207A643B64396C7A6C41E80023FB6378
:103EB000FB6B002BE3D17B681B6814337B627B6A4E
:103EC00053E8003F3B623B6A23F00103C7F8C4306C
:103ED0007B681B681433D7F8C4203A63FB62F96A25
:103EE0003A6B41E80023BB62BB6A002BE3D17B68DD
:103EF000202283F842207B6800221A637B681B68BB
:103F00000C333B613B6953E8003FFB60FB6823F0E7
:103F10001003C7F8C0307B681B680C33D7F8C0208B
:103F2000FA61BB61B969FA6941E800237B617B6989
:103F3000002BE3D17B6802225A63B7F8CE301946D2
:103F4000786800F03DF823E0D7F8E43003F0800310
:103F5000002B09D0D7F8E03003F08003002B03D00A
:103F6000786800F043F914E0D7F8E43003F0400338
:103F7000002B0ED0D7F8E03003F04003002B08D020
:103F8000786800F083F904E000BF02E000BF00E0C1
:103F900000BFE837BD4680BD80B483B000AF786015
:103FA00000BF0C37BD465DF8047B704780B483B01A
:103FB00000AF786000BF0C37BD465DF8047B7047EA
:103FC00080B483B000AF78600B467B8000BF0C37B5
:103FD000BD465DF8047B704780B586B000AFF860E1
:103FE000B9603B601346FB713BE03B6AB3F1FF3FB6
:103FF00037D0FDF7A1F902463B68D31A3A6A9A42D4
:1040000002D33B6A002B01D103233AE0FB681B6813
:10401000DB6803F00403002B23D0BB68802B20D087
:10402000BB68402B1DD0FB681B681B6803F00803AE
:10403000082B16D100237B61FB681B681B687B6122
:10404000FB681B685B687B617B69F86800F057F868
:10405000FB6808225A64FB68002283F84020012391
:104060000FE0FB681B681A68BB681340BA689A4285
:104070000CBF01230023DBB21A46FB799A42B4D06D
:10408000002318461837BD4680BD80B485B000AF08
:10409000F860B9601346FB80FB68BA689A62FB68F7
:1040A000FA889A85FB68FA88DA85FB6800225A64E8
:1040B000FB68222283F84220FB681B69002B07D093
:1040C000FB681B68DA68FB681B6842F48072DA6080
:1040D000FB681B685A69FB681B6842F001025A6161
:1040E000FB681B68DA68FB681B6842F02002DA6034
:1040F000002318461437BD465DF8047B704780B432
:1041000095B000AF78607B681B680C337B637B6B7A
:1041100053E8003F3B633B6B23F49073FB647B6885
:104120001B680C33FA6C3A64FB63F96B3A6C41E838
:104130000023BB63BB6B002BE5D17B681B6814338A
:104140003B623B6A53E8003FFB61FB6923F00103DC
:10415000BB647B681B681433BA6CFA62BB62B96AD1
:10416000FA6A41E800237B627B6A002BE5D17B6819
:104170001B6B012B19D17B681B680C33FB60FB6840
:1041800053E8003FBB60BB6823F010037B647B688F
:104190001B680C337A6CBA617B617969BA6941E852
:1041A00000233B613B69002BE5D17B68202283F82B
:1041B00042207B6800221A6300BF5437BD465DF879
:1041C000047B704780B584B000AF78607B689B6BE0
:1041D000FB60FB680022DA85FB680022DA84F8685D
:1041E000FFF7E4FE00BF1037BD4680BD80B485B048
:1041F00000AF78607B6893F84130DBB2212B3ED171
:104200007B689B68B3F5805F14D17B681B69002BCA
:1042100010D17B681B6AFB60FB681B881A467B68B1
:104220001B68C2F308025A607B681B6A9A1C7B6891
:104230001A6208E07B681B6A591C7A6811621A7856
:104240007B681B685A607B68DB8C9BB2013B9BB22E
:104250007A681946D184002B0FD17B681B68DA6815
:104260007B681B6822F08002DA607B681B68DA6872
:104270007B681B6842F04002DA60002300E0022302
:1042800018461437BD465DF8047B704780B582B090
:1042900000AF78607B681B68DA687B681B6822F077
:1042A0004002DA607B68202283F841207868FFF7BB
:1042B00073FE002318460837BD4680BD80B58CB01C
:1042C00000AF78607B6893F84230DBB2222B40F07D
:1042D000AE807B689B68B3F5805F17D17B681B69F4
:1042E000002B13D10023FB627B689B6ABB627B6857
:1042F0001B685B689BB2C3F308039AB2BB6A1A805F
:104300007B689B6A9A1C7B689A6226E07B689B6A42
:10431000FB620023BB627B689B68B3F5805F07D0BC
:104320007B689B68002B0AD17B681B69002B06D138
:104330007B681B685B68DAB2FB6A1A7008E07B680E
:104340001B685B68DBB203F07F03DAB2FB6A1A70AA
:104350007B689B6A5A1C7B689A627B68DB8D9BB288
:10436000013B9BB27A681946D185002B5DD17B68F1
:104370001B68DA687B681B6822F02002DA607B68C1
:104380001B68DA687B681B6822F48072DA607B68DD
:104390001B685A697B681B6822F001025A617B68BE
:1043A000202283F842207B6800225A637B681B6BC3
:1043B000012B35D17B6800221A637B681B680C33A4
:1043C0007B617B6953E8003F3B613B6923F010034D
:1043D0007B627B681B680C337A6A3A62FB61F9691D
:1043E0003A6A41E80023BB61BB69002BE5D17B68D9
:1043F0001B681B6803F01003102B0AD10023FB601D
:104400007B681B681B68FB607B681B685B68FB60E4
:10441000FB687B689B8D19467868FFF7D1FD02E049
:104420007868FCF7D3FB002302E0002300E00223BE
:1044300018463037BD4680BD2DE9B04FC0B000AF43
:10444000C7F8F400D7F8F4301B681B6923F4405018
:10445000D7F8F430D968D7F8F4301A6840EA010385
:104460001361D7F8F4309A68D7F8F4301B691A430F
:10447000D7F8F4305B691A43D7F8F430DB6913439B
:10448000C7F8F830D7F8F4301B68DB6823F416411E
:1044900021F00C01D7F8F4301A68D7F8F8300B4344
:1044A000D360D7F8F4301B685B6923F44070D7F809
:1044B000F4309969D7F8F4301A6840EA010353617F
:1044C000D7F8F4301A688F4B9A4205D0D7F8F430F9
:1044D0001A688D4B9A4204D1FFF78EF9C7F8FC0099
:1044E00003E0FFF775F9C7F8FC00D7F8F430DB6993
:1044F000B3F5004F40F00C81D7F8FC300022C7F82C
:10450000E830C7F8EC20D7E93A4522462B46911807
:10451000B9655B41FB65D7E91623214612EB01081B
:10452000294643EB01094FF000024FF000034FEA28
:10453000C90343EA58734FEAC80290469946234696
:1045400018EB0303C7F8E0302B4649EB0303C7F829
:10455000E430D7F8F4305B680022C7F8D830C7F8E9
:10456000DC20D7E936120B46DB183B65134642EBDD
:1045700003037B65D7E91423D7E93801FBF778FEFD
:1045800002460B46614BA3FB02235B091C01D7F8D3
:10459000FC300022C7F8D030C7F8D420D7E93489DE
:1045A00042464B469118B9645B41FB64D7E912233C
:1045B000414612EB010A494643EB010B4FF0000262
:1045C0004FF000034FEACB0343EA5A734FEACA02A3
:1045D00092469B4643461AEB0303C7F8C8304B4646
:1045E0004BEB0303C7F8CC30D7F8F4305B680022FC
:1045F000C7F8C030C7F8C420D7E930120B46DB1823
:104600003B64134642EB03037B64D7E91023D7E9ED
:104610003201FBF72DFE02460B4611463B4BA3FB36
:1046200001235B09642202FB03F3CB1ADB0003F1D5
:104630003202364BA3FB02235B095B0003F4F873E1
:104640001C44D7F8FC300022C7F8B830C7F8BC20AB
:10465000D7E92E8942464B469118B9635B41FB630B
:10466000D7E90E2341465118396349464B417B63D4
:104670004FF000024FF00003D7E90CAB5946CB00D6
:10468000514643EA51735146CA0010461946034643
:1046900042469B18C7F8B0304B460A4642EB03032C
:1046A000C7F8B430D7F8F4305B680022C7F8A830F8
:1046B000C7F8AC20D7E92A120B46DB18BB621346B9
:1046C00042EB0303FB62D7E90A23D7E92C01FBF78E
:1046D000CFFD02460B460D4BA3FB02135B09642181
:1046E00001FB03F3D31ADB003233084AA2FB032396
:1046F0005B0903F00702D7F8F4301B6822449A6084
:1047000006E100BF00100140001401401F85EB517D
:10471000D7F8FC300022C7F8A030C7F8A420D7E9AA
:10472000288942464B46911839625B417B62D7E942
:10473000082341465418494643EB01054FF0000257
:104740004FF00003EB0043EA5473E20014461D46A9
:104750004346E318C7F898304B4645EB0303C7F8C8
:104760009C30D7F8F4305B680022C7F89030C7F867
:1047700094204FF000024FF00003D7E9244529466A
:104780008B00214643EA917321468A00D7E926012E
:10479000FBF76EFD02460B46604BA3FB02235B0951
:1047A0001C01D7F8FC300022C7F88830C7F88C20ED
:1047B000D7E9228942464B469118B9615B41FB61BA
:1047C000D7E9062341465118396149464B417B617F
:1047D0004FF000024FF00003D7E904AB5946CB007D
:1047E000514643EA51735146CA00104619460346E2
:1047F00042469B18C7F880304B460A4642EB0303FB
:10480000C7F88430D7F8F4305B680022BB67FA67DA
:104810004FF000024FF00003D7E91E8949468B0094
:10482000414643EA917341468A00D7E92001FBF7EC
:104830001FFD02460B461146384BA3FB01235B09C3
:10484000642202FB03F3CB1A1B013233334AA2FB6F
:1048500003235B0903F0F0031C44D7F8FC3000226B
:104860003B677A67D7E91C8942464B469118B96085
:104870005B41FB60D7E90223414651183960494644
:104880004B417B604FF000024FF00003D7E900ABD3
:104890005946CB00514643EA51735146CA0010466F
:1048A0001946034642469B18BB664B460A4642EBF6
:1048B0000303FB66D7F8F4305B6800223B667A6638
:1048C0004FF000024FF00003D7E9188949468B00EA
:1048D000414643EA917341468A00D7E91A01FBF742
:1048E000C7FC02460B460D4BA3FB02135B09642178
:1048F00001FB03F3D31A1B013233084AA2FB032343
:104900005B0903F00F02D7F8F4301B6822449A6069
:1049100000BF07F58077BD46BDE8B08F1F85EB511E
:1049200084B080B584B000AF786007F11C0080E8E7
:104930000E0097F82130012B23D17B689B6B23F469
:1049400080327B689A637B68DB6823F4840323F0FE
:1049500040037A68D3607B68DB6823F440127B688D
:10496000DA6097F82830012B05D17B68DB6843F4C7
:1049700080127B68DA60786801F0E2FA0346FB7324
:104980001BE07B68DB6843F040027B68DA60786894
:1049900001F0D6FA0346FB7397F82530002B06D1B9
:1049A0007B689B6B43F480327B689A6305E07B688D
:1049B0009B6B23F480327B689A63BB7F012B0BD106
:1049C0007B689B6843F006027B689A607B689B6803
:1049D00043F020027B689A60FB7B18461037BD4687
:1049E000BDE8804004B0704780B487B000AFF86085
:1049F000B9601346FB71FB79022B65D1BB68414A54
:104A0000934206D9BB68404A934202D20F237B618E
:104A100062E0BB683C4A934206D3BB683B4A934280
:104A200002D20E237B6157E0BB68384A934206D31B
:104A3000BB68374A934202D20D237B614CE0BB68CE
:104A4000334A934206D3BB68324A934202D80C23BE
:104A50007B6141E0BB682F4A934206D9BB682E4A6E
:104A6000934202D80B237B6136E0BB682A4A93420B
:104A700006D9BB68294A934202D80A237B612BE0FE
:104A8000BB68264A934206D9BB68254A934202D2A4
:104A900009237B6120E0BB68214A934206D3BB68AF
:104AA000204A934202D808237B6115E0BB681D4A67
:104AB000934206D9BB681C4A934202D207237B610A
:104AC0000AE006237B6107E0FB79002B02D1092372
:104AD0007B6101E009237B61FB68DB6823F4705292
:104AE000FB68DA60FB68DA687B699B0203F4705349
:104AF0001A43FB68DA60002318461C37BD465DF890
:104B0000047B7047BFACD800C0E1E4000024F4008F
:104B1000807306019F491A01FF2C31013FA44C010B
:104B200000366E011FABA6010048E80180B483B0D7
:104B300000AF78607B689B6843F001027B689A60F5
:104B4000002318460C37BD465DF8047B704780B4DF
:104B500083B000AF78607B689B6823F001027B68BC
:104B60009A60002318460C37BD465DF8047B7047F9
:104B700080B584B000AF78600B46FB700023FB600B
:104B80007B68DB6823F0C0427B68DA60FB78012B2E
:104B900015D17B68DB6843F000527B68DA600A203D
:104BA000FCF7D6FBFB680A33FB60786801F039F943
:104BB0000346012B1ED0FB68C72BF0D91AE0FB7807
:104BC000002B15D17B68DB6843F080427B68DA609C
:104BD0000A20FCF7BDFBFB680A33FB60786801F034
:104BE00020F90346002B05D0FB68C72BF0D901E064
:104BF000012305E0FB68C82B01D1012300E000235D
:104C000018461037BD4680BD84B080B586B000AF71
:104C1000786007F1240080E80E000023FB757B68B4
:104C2000FB6000233B6109E07A683B6940339B00ED
:104C3000134400225A603B6901333B613B690E2BF0
:104C4000F2D997F82E30002B1CD1FB6803F50063D6
:104C50005B68FA6802F5006243F0020353607B6808
:104C60009B6B43F400127B689A637B689B6B23F415
:104C700000227B689A637B689B6B23F480227B68AD
:104C80009A630BE07B689B6B23F400127B689A634A
:104C90007B689B6B43F400227B689A63FB6803F597
:104CA00060631A460023136097F82930012B0DD159
:104CB00097F82730002B04D10021786800F068F9BC
:104CC00008E00121786800F063F903E003217868C7
:104CD00000F05EF91021786800F0FAF80346002B26
:104CE00001D00123FB75786800F024F90346002BFE
:104CF00001D00123FB75FB6803F500631A4600230E
:104D00001361FB6803F500631A4600235361FB68D7
:104D100003F500631A460023D36100233B6143E09F
:104D20003B695A01FB68134403F510631B6803F0E9
:104D30000043B3F1004F18D13B69002B0AD13B6906
:104D40005A01FB68134403F510631A464FF00063E1
:104D5000136013E03B695A01FB68134403F51063C9
:104D60001A464FF09043136008E03B695A01FB6814
:104D7000134403F510631A46002313603B695A017C
:104D8000FB68134403F510631A46002313613B6963
:104D90005A01FB68134403F510631A464FF67F333C
:104DA00093603B6901333B6197F824301A463B69B5
:104DB0009342B5D300233B6143E03B695A01FB6852
:104DC000134403F530631B6803F00043B3F1004F55
:104DD00018D13B69002B0AD13B695A01FB68134487
:104DE00003F530631A464FF00063136013E03B692C
:104DF0005A01FB68134403F530631A464FF09043A1
:104E0000136008E03B695A01FB68134403F5306303
:104E10001A46002313603B695A01FB68134403F5EB
:104E200030631A46002313613B695A01FB6813443F
:104E300003F530631A464FF67F3393603B690133C5
:104E40003B6197F824301A463B699342B5D3FB681F
:104E500003F500631B69FA6802F5006223F48073AE
:104E600013617B6800229A617B686FF080425A610F
:104E700097F82630002B05D17B689B6943F0100220
:104E80007B689A617B689A69104B13437A689361D7
:104E900097F82A30002B05D07B689B6943F0080205
:104EA0007B689A6197F82E30012B07D17B689B694C
:104EB00043F0804343F004037A689361FB7D184616
:104EC0001837BD46BDE8804004B0704700383C80CC
:104ED00080B485B000AF786039600023FB60FB6868
:104EE0000133FB60FB68B3F1706F01D903231BE052
:104EF0007B681B69002BF2DA0023FB603B689B0197
:104F000043F020027B681A61FB680133FB60FB6899
:104F1000B3F1706F01D9032306E07B681B6903F0CE
:104F20002003202BF0D0002318461437BD465DF82F
:104F3000047B704780B485B000AF78600023FB60CD
:104F4000FB680133FB60FB68B3F1706F01D9032389
:104F500018E07B681B69002BF2DA0023FB607B689A
:104F600010221A61FB680133FB60FB68B3F1706FBC
:104F700001D9032306E07B681B6903F01003102BA3
:104F8000F0D0002318461437BD465DF8047B704707
:104F900080B485B000AF78600B46FB707B68FB6027
:104FA000FB6803F500631A68FB78F96801F5006196
:104FB00013430B60002318461437BD465DF8047B8D
:104FC000704780B487B000AF78607B683B613B6915
:104FD00003F500639B6803F00603FB60FB68002B8E
:104FE00002D10023FB750AE0FB68022B02D0FB68AC
:104FF000062B02D10223FB7501E00F23FB75FB7D1D
:1050000018461C37BD465DF8047B704780B485B0F8
:1050100000AF786039607B68FB603B681B78BB60E1
:105020003B685B78012B3AD1FB6803F50063DA69D2
:105030003B681B7803F00F03012101FA03F39BB2D5
:10504000F96801F500611343CB61BB685A01FB6845
:10505000134403F510631B6803F40043002B55D180
:10506000BB685A01FB68134403F510631A683B6878
:105070009B68C3F30A013B681B799B041943BB6817
:105080009B050B431343BA685101FA680A4402F5C1
:10509000106243F0805343F40043136036E0FB6832
:1050A00003F50063DA693B681B7803F00F03012105
:1050B00001FA03F31B04F96801F500611343CB61A6
:1050C000BB685A01FB68134403F530631B6803F4A3
:1050D0000043002B1AD1BB685A01FB68134403F547
:1050E00030631A683B689B68C3F30A013B681B790D
:1050F0009B040B431343BA685101FA680A4402F552
:10510000306243F0805343F4004313600023184699
:105110001437BD465DF8047B7047000080B485B04D
:1051200000AF786039607B68FB603B681B78BB60D0
:105130003B685B78012B61D1BB685A01FB68134463
:1051400003F510631B6803F00043B3F1004F1FD158
:10515000BB685A01FB68134403F510631B68BA6807
:105160005101FA680A4402F5106243F000631360CB
:10517000BB685A01FB68134403F510631B68BA68E7
:105180005101FA680A4402F5106243F0804313604B
:10519000FB6803F50063DA6B3B681B7803F00F03D1
:1051A000012101FA03F39BB2DB43F96801F50061C9
:1051B0001340CB63FB6803F50063DA693B681B7837
:1051C00003F00F03012101FA03F39BB2DB43F968FB
:1051D00001F500611340CB61BB685A01FB681344C1
:1051E00003F510631A68BB685901FB680B4403F5AB
:1051F00010631946354B13400B6060E0BB685A01E1
:10520000FB68134403F530631B6803F00043B3F1FC
:10521000004F1FD1BB685A01FB68134403F530638C
:105220001B68BA685101FA680A4402F5306243F01B
:1052300000631360BB685A01FB68134403F53063D5
:105240001B68BA685101FA680A4402F5306243F0FB
:1052500080431360FB6803F50063DA6B3B681B78DF
:1052600003F00F03012101FA03F31B04DB43F96888
:1052700001F500611340CB63FB6803F50063DA6955
:105280003B681B7803F00F03012101FA03F31B04B1
:10529000DB43F96801F500611340CB61BB685A013B
:1052A000FB68134403F530631A68BB685901FB6857
:1052B0000B4403F530631946054B13400B60002384
:1052C00018461437BD465DF8047B7047007833EC10
:1052D0000078F3EF80B58AB002AFF860B96013468A
:1052E000FB71FB68FB61BB681B78BB61BB685B78CB
:1052F000012B40F07A81BB681B69002B32D1BB695E
:105300005A01FB69134403F510631B69BA69510123
:10531000FA690A4402F5106223F0FF5323F4C01324
:105320001361BB695A01FB69134403F510631B69E0
:10533000BA695101FA690A4402F5106243F4002384
:105340001361BB695A01FB69134403F510631B69C0
:10535000BA695101FA690A4402F51062DB0CDB04F8
:10536000136192E0BB695A01FB69134403F51063B2
:105370001B69BA695101FA690A4402F51062DB0C33
:10538000DB041361BB695A01FB69134403F5106325
:105390001B69BA695101FA690A4402F5106223F0E7
:1053A000FF5323F4C0131361BB69002B1AD1BB68F0
:1053B0001A69BB689B689A4203D9BB689A68BB6844
:1053C0001A61BB695A01FB69134403F510631B6939
:1053D000BA695101FA690A4402F5106243F40023E4
:1053E00013611BE0BB695A01FB69134403F51063A9
:1053F0001A69BB681969BB689B680B44591EBB6876
:105400009B68B1FBF3F3D904A24B0B40B969480187
:10541000F969014401F5106113430B61BB695A013D
:10542000FB69134403F510631A69BB681B69C3F376
:105430001203B9694801F969014401F51061134388
:105440000B61BB681B79012B1FD1BB695A01FB693A
:10545000134403F510631B69BA695101FA690A44E0
:1054600002F5106223F0C0431361BB695A01FB6966
:10547000134403F510631B69BA695101FA690A44C0
:1054800002F5106243F000531361FB79012B4BD1FD
:10549000BB68DB69002B09D0BB695A01FB69134467
:1054A00003F510631A46BB68DB695361BB681B795F
:1054B000012B28D1FB6903F500639B6803F480731B
:1054C000002B10D1BB695A01FB69134403F510632B
:1054D0001B68BA695101FA690A4402F5106243F087
:1054E000005313600FE0BB695A01FB69134403F5D5
:1054F00010631B68BA695101FA690A4402F5106227
:1055000043F080531360BB695A01FB69134403F5F0
:1055100010631B68BA695101FA690A4402F5106206
:1055200043F00443136065E1BB695A01FB6913440E
:1055300003F510631B68BA695101FA690A4402F560
:10554000106243F004431360BB681B79012B15D034
:10555000BB681B69002B00F04D81FB6903F50063FC
:105560005A6BBB681B7803F00F03012101FA03F3A8
:10557000F96901F5006113434B633BE1FB6903F5F6
:1055800000639B6803F48073002B10D1BB695A0140
:10559000FB69134403F510631B68BA695101FA698A
:1055A0000A4402F5106243F0005313600FE0BB6938
:1055B0005A01FB69134403F510631B68BA69510172
:1055C000FA690A4402F5106243F080531360BB6825
:1055D000D968BB681A78BB681B6998B2FB790093DD
:1055E0000346F86800F0B8F904E1BB695A01FB69A9
:1055F000134403F530631B69BA695101FA690A441F
:1056000002F53062DB0CDB041361BB695A01FB69F4
:10561000134403F530631B69BA695101FA690A44FE
:1056200002F5306223F0FF5323F4C0131361BB690A
:10563000002B31D1BB681B69002B03D0BB689A6873
:10564000BB681A61BB689A68BB681A62BB695A0179
:10565000FB69134403F530631A69BB681B6AC3F323
:105660001203B9694801F969014401F53061134336
:105670000B61BB695A01FB69134403F530631B6975
:10568000BA695101FA690A4402F5306243F4002311
:10569000136161E00000F81FBB681B69002B23D178
:1056A000BB695A01FB69134403F530631A69BB688F
:1056B0009B68C3F31203B9694801F969014401F514
:1056C000306113430B61BB695A01FB69134403F555
:1056D00030631B69BA695101FA690A4402F5306204
:1056E00043F40023136137E0BB681A69BB689B6809
:1056F00013445A1EBB689B68B2FBF3F3FB82BB6882
:105700009B68FA8A03FB02F2BB681A62BB695A0102
:10571000FB69134403F530631A69FB8AD904384BDB
:105720000B40B9694801F969014401F5306113433F
:105730000B61BB695A01FB69134403F530631A69B5
:10574000BB681B6AC3F31203B9694801F9690144D4
:1057500001F5306113430B61FB79012B0DD1BB685F
:10576000DB68002B09D0BB68D968BB695A01FB69AB
:10577000134403F530630A465A61BB681B79012B59
:1057800028D1FB6903F500639B6803F48073002B49
:1057900010D1BB695A01FB69134403F530631B68E0
:1057A000BA695101FA690A4402F5306243F00053C4
:1057B00013600FE0BB695A01FB69134403F53063C2
:1057C0001B68BA695101FA690A4402F5306243F074
:1057D00080531360BB695A01FB69134403F53063BE
:1057E0001B68BA695101FA690A4402F5306243F054
:1057F00004431360002318462037BD4680BD00BF18
:105800000000F81F80B487B000AF786039600023D3
:10581000FB600023FB757B683B613B685B78012B79
:105820004AD13B681B785A013B69134403F5106366
:105830001B6803F00043B3F1004F40F086803B68E3
:105840001B785A013B69134403F510631B683A68DF
:10585000127851013A690A4402F5106243F000637C
:1058600013603B681B785A013B69134403F51063CE
:105870001B683A68127851013A690A4402F51062CD
:1058800043F080431360FB680133FB60FB6842F226
:105890001072934202D90123FB7556E03B681B78D6
:1058A0005A013B69134403F510631B6803F000437E
:1058B000B3F1004FE7D048E03B681B785A013B69E1
:1058C000134403F530631B6803F00043B3F1004F4A
:1058D0003BD13B681B785A013B69134403F53063A5
:1058E0001B683A68127851013A690A4402F530623D
:1058F00043F0006313603B681B785A013B69134413
:1059000003F530631B683A68127851013A690A441A
:1059100002F5306243F080431360FB680133FB60A3
:10592000FB6842F21072934202D90123FB750CE02E
:105930003B681B785A013B69134403F530631B68CD
:1059400003F00043B3F1004FE7D0FB7D18461C374E
:10595000BD465DF8047B704780B489B000AFF86045
:10596000B96011461A460B46FB711346BB80FB68B3
:105970007B61BB68FB6197F82830002B23D1BB8883
:1059800003339B083B610023BB6118E0FB791A03DA
:105990007B69134403F580531A46FB691B68136047
:1059A000FB690133FB61FB690133FB61FB69013377
:1059B000FB61FB690133FB61BB690133BB61BA6900
:1059C0003B699A42E2D3002318462437BD465DF86E
:1059D000047B704780B48BB000AFF860B9601346A9
:1059E000FB80FB68BB61BB687B62FB889B089BB24A
:1059F0007B61FB8803F00303FB8300233B6214E01D
:105A0000BB6903F580531A687B6A1A607B6A0133AD
:105A10007B627B6A01337B627B6A01337B627B6AD8
:105A200001337B623B6A01333B623A6A7B699A428B
:105A3000E6D3FB8B002B1ED000233B62BB6903F532
:105A400080531A4607F1100312681A603A693B6ADC
:105A5000DBB2DB0022FA03F3DAB27B6A1A703B6A2C
:105A600001333B627B6A01337B62FB8B013BFB832F
:105A7000FB8B002BEAD17B6A18462C37BD465DF8BC
:105A8000047B704780B485B000AF786039607B6874
:105A9000FB603B681B78BB603B685B78012B2CD1BB
:105AA000BB685A01FB68134403F510631B68002BA5
:105AB00012DBBB68002B0FD0BB685A01FB68134494
:105AC00003F510631B68BA685101FA680A4402F5CD
:105AD000106223F080431360BB685A01FB681344D3
